:100000000C9434000C9453000C9451000C94510047
:100010000C9451000C9451000C9451000C9451001C
:100020000C9451000C9451000C9451000C9451000C
:100030000C9451000C9451000C9451000C945100FC
:100040000C9451000C9451000C9451000C945100EC
:100050000C9451000C9451000C9451000C945100DC
:100060000C9451000C94510011241FBECFEFD8E026
:10007000DEBFCDBF12E0A0E0B1E0EAE9FFE002C0E0
:1000800005900D92A638B107D9F722E0A6E8B2E0B4
:1000900001C01D92A53CB207E1F70E943F010C94FC
:1000A000CB070C9400001F920F920FB60F921124F1
:1000B0008F9381E0809387028F910F900FBE0F90F6
:1000C0001F901895CF93DF931F92CDB7DEB786E2CE
:1000D00091E00E94A30484E591E00E94A30441E022
:1000E00050E0BE016F5F7F4F80E00E940702898170
:1000F0001F928F9380E891E09F938F930E948D04CD
:1001000041E050E0BE016F5F7F4F81E00E94070237
:1001100089811F928F9380E991E09F938F930E9432
:100120008D0441E050E0BE016F5F7F4F82E00E948E
:10013000070289811F928F9380EA91E09F938F93AA
:100140000E948D0441E050E0BE016F5F7F4F84E06C
:100150000E94070289811F928F9383EB91E09F9306
:100160008F930E948D0441E050E0BE016F5F7F4F8E
:1001700085E00E94070289811F928F9387EC91E0AE
:100180009F938F930E948D0441E050E0BE016F5F0A
:100190007F4F86E00E94070289811F928F9387ED2F
:1001A00091E09F938F930E948D0441E050E0BE0147
:1001B0006F5F7F4F87E00E94070289811F928F93B4
:1001C00089EE91E09F938F930E948D0441E050E06F
:1001D000BE016F5F7F4F8DE10E94070289811F92F0
:1001E0008F9389EF91E09F938F930E948D040FB6B8
:1001F000F894DEBF0FBECDBF8AE092E00E94A30458
:100200000F90DF91CF91089584E480937C0085E87E
:1002100080937A0008951092BD021092BC0224E0EF
:10022000EAE7F0E0A8E7B0E0808180648083808125
:1002300086FDFDCF4D915C9111978091BC0290910C
:10024000BD02840F951F9093BD028093BC023FEFC7
:1002500080E792E0315080409040E1F700C000001C
:10026000215011F78091BC029091BD02969587951F
:10027000969587959093BD028093BC020895CF9385
:10028000DF93CDB7DEB7A0970FB6F894DEBF0FBEF1
:10029000CDBF0E945F040E9404010E940A020E94D6
:1002A00062000E942F030F2EF4EFAF2EBB24B394F5
:1002B000F02D0F2ECC24CA94F3E0DF2EF02D0F2E5C
:1002C000F7E3EF2EF2E0FF2EF02D08EA12E00F2EFA
:1002D000FDE38F2EF2E09F2EF02D502E612E0F2E7B
:1002E000F4E17F2EF02D0E940B012091BC02309191
:1002F000BD022A9DC0012B9D900D3A9D900D1124A9
:10030000B6010E9472046C5E7F4F7093BD026093D1
:10031000BC028091BC029091BD029F938F93FF928B
:10032000EF921F927F921F930F930E94D304652D2B
:10033000762DCE0101960E948604CE0101960E9480
:100340003A032FEF3DE389E4215030408040E1F74C
:1003500000C00000809187020FB6F894DEBF0FBE88
:10036000CDBF882309F4BFCF109287020E94F70304
:100370009F938F939F928F920E948D043FEF89E607
:1003800098E1315080409040E1F700C00000CE017C
:1003900001960E943A0391E00F900F900F900F90FA
:1003A000811101C090E0909386028091860288239B
:1003B00009F499CF83E592E00E94A30490CFDF92E5
:1003C000EF92FF920F931F93CF93DF937B018A01EC
:1003D0002A980E943E04D82E0115110551F0E7011C
:1003E0000E0D1F1D88810E943E048993C017D107FE
:1003F000C9F72A9A8D2DDF91CF911F910F91FF9010
:10040000EF90DF90089580620E94DF0108950E94BE
:10041000DF0108950F931F93CF93DF931F92CDB702
:10042000DEB7F894E9E6F0E0808182608083E89AA4
:100430007894219A229A2A9A29980E942F042FEFC1
:1004400081EE94E0215080409040E1F700C0000030
:100450000FE30093BE0241E050E06EEB72E080E0FB
:100460000E9403021092BE0241E050E06EEB72E087
:1004700081E00E94030280EF8093BE0241E050E0E1
:100480006EEB72E084E00E9403021092BE0241E033
:1004900050E06EEB72E082E00E94030284E78093FA
:1004A000BE0241E050E06EEB72E085E00E94030284
:1004B0008EE08093BE0241E050E06EEB72E086E099
:1004C0000E94030210E71093BE0241E050E06EEB81
:1004D00072E087E00E9403020093BE0241E050E018
:1004E0006EEB72E08CE10E94030284E08093BE0216
:1004F00041E050E06EEB72E08DE10E94030219834F
:1005000040E050E060E070E082EE0E94030240E0D4
:1005100050E060E070E081EE0E94030245E050E0B0
:1005200065E071E08AE00E94030245E050E060E08F
:1005300071E080E10E94030241E050E0BE016F5F84
:100540007F4F82E00E94030289818160898341E0BC
:1005500050E0BE016F5F7F4F82E00E9403020F9068
:10056000DF91CF911F910F9108951F93CF93DF9348
:100570001F92CDB7DEB7182F41E050E0BE016F5F8C
:100580007F4F80E00E940702133071F128F4113090
:1005900059F01230E9F05EC0153009F447C0D0F1CF
:1005A000163009F445C056C0898181FD53C0826070
:1005B0008093BE0241E050E06EEB72E080E00E946A
:1005C00003028FE39FE10197F1F700C0000042C0F2
:1005D00089818D7F8093BE0241E050E06EEB72E036
:1005E00080E00E94030236C0898181608093BE0250
:1005F00041E050E06EEB72E080E00E94030280E791
:100600008093BE0241E050E06EEB72E087E00E9412
:10061000030220C089818E7F8093BE0241E050E0BA
:100620006EEB72E080E00E94030214C0299812C0B1
:1006300089818E7F8093BE0241E050E06EEB72E0D4
:1006400080E00E940302299A87E592E00197F1F782
:1006500000C000000F90DF91CF911F91089583E0BB
:100660000E94B502299A87E592E00197F1F700C050
:1006700000000895CF92DF92EF92FF920F931F93A5
:10068000CF93DF93CDB7DEB7A0970FB6F894DEBF58
:100690000FBECDBF6C016894FF24F5F8CE01019622
:1006A000FC012F2D11922A95E9F7B6010E948604CC
:1006B000F60101900020E9F731978F010C191D090F
:1006C00084E00E94B50240E050E060E070E082EE1D
:1006D0000E94030240E050E060E070E081EE0E9482
:1006E0000302F092BE0241E050E06EEB72E087E060
:1006F0000E94030241E050E06EEB72E080E00E9455
:1007000007028091BE0280648093BE0241E050E007
:100710006EEB72E080E00E9403022A9880EB0E9458
:100720003904EFEFE00F002381F08601EE2EF12C6B
:10073000F70131967601EE0EFF1EF80181918F01CF
:100740000E9439040E151F05C1F780E00E9439048C
:100750002A9A299AF0E5FA95F1F7299841E050E0B4
:100760006EEB72E087E00E9407028091BE0285FD79
:100770000BC041E050E06EEB72E087E00E940702A0
:100780008091BE0285FFF5CFCE0101969F938F9396
:100790008DE692E09F938F930E948D0441E050E09C
:1007A0006EEB72E080E00E9407028091BE028F7BB8
:1007B0008093BE0241E050E06EEB72E080E00E9468
:1007C00003020E942F030F900F900F900F9081E073
:1007D000A0960FB6F894DEBF0FBECDBFDF91CF91CC
:1007E0001F910F91FF90EF90DF90CF90089580E2DE
:1007F000E8E8F2E0DF011D928A95E9F741E050E078
:100800006EEB72E080E60E9407024091BE02442334
:1008100041F050E04F5F5F4F68E872E081E60E9470
:10082000DF0180918802882369F080E48093BE0212
:1008300041E050E06EEB72E087E00E94030288E83E
:1008400092E0089580E48093BE0241E050E06EEBB8
:1008500072E087E00E9403028FE792E008952498F7
:1008600084B1886284B980E58CBD8DB581608DBD11
:1008700008958EBD0DB407FEFDCF08958EBD0DB455
:1008800007FEFDCF8EB50895CF93C82F8A3019F497
:100890008DE00E944404E0ECF0E0808185FFFDCF14
:1008A000C093C60080E090E0CF910895E0ECF0E0C6
:1008B00080818823ECF78091C60090E00895109223
:1008C000C50087E68093C40088E18093C100EFEB08
:1008D000F2E088E191E0938382838AE091E0918362
:1008E00080830895AA1BBB1B51E107C0AA1FBB1F31
:1008F000A617B70710F0A61BB70B881F991F5A95AC
:10090000A9F780959095BC01CD010895FB01DC010C
:1009100001900D920020E1F70895A0E0B0E0E3E936
:10092000F4E00C94A407AE014B5F5F4FFA016191B4
:100930007191AF018091C1029091C2020E940305A2
:10094000E2E00C94C0070F931F93CF93DF93E091E5
:10095000C102F091C202238121FF1BC08C01D0E0B3
:10096000C0E0F80181918F016091C1027091C202D3
:10097000DB011896ED91FC911997882331F00995C8
:10098000892B79F3DFEFCFEFECCF8AE00995892B44
:1009900019F08FEF9FEF02C08D2F9C2FDF91CF9129
:1009A0001F910F910895AEE0B0E0E9EDF4E00C94F2
:1009B000A2070D891E898F89988D26E02C831A83C2
:1009C000098397FF02C080E090E801979E838D83A2
:1009D000AE01455E5F4F698D7A8DCE0101960E9412
:1009E00003054D815E8157FD0AC02F81388542176E
:1009F00053070CF49A01F801E20FF31F10822E96B0
:100A0000E4E00C94BE07ABE0B0E0E9E0F5E00C9464
:100A100094076C017B018A01FC0117821682838195
:100A200081FFCCC1CE0101963C01F6019381F70113
:100A300093FD859193FF81917F01882309F4BAC1C9
:100A4000853239F493FD859193FF81917F01853241
:100A500029F4B60190E00E94FA06E7CF912C212CF0
:100A6000312CFFE1F315D8F08B3279F038F4803275
:100A700079F08332A1F4232D20611DC08D3261F005
:100A8000803369F4232D216016C0832D8260382EB7
:100A9000E32DE4603E2E2AC0F32DF8601DC037FC24
:100AA0002DC020ED280F2A3040F08E32B9F436FCEC
:100AB00081C1232D2064322E19C036FE06C08AE083
:100AC000989E200D1124922E11C0EAE02E9E200D3A
:100AD0001124222EF32DF0623F2E08C08C3621F413
:100AE000832D8068382E02C0883641F4F70193FDCB
:100AF000859193FF81917F018111B3CF982F9F7DC5
:100B00009554933028F40C5F1F4F9FE399830DC0D9
:100B1000833631F0833771F0833509F059C021C035
:100B2000F801808189830E5F1F4F88248394912C64
:100B3000530113C02801F2E04F0E511CF801A080B0
:100B4000B18036FE03C0692D70E002C06FEF7FEF09
:100B5000C5010E94EF064C018201F32DFF773F2E65
:100B600016C0280122E0420E511CF801A080B1807D
:100B700036FE03C0692D70E002C06FEF7FEFC50144
:100B80000E94E4064C01F32DF0683F2E820133FCF5
:100B90001BC0822D90E088169906B0F4B60180E261
:100BA00090E00E94FA062A94F4CFF50137FC859173
:100BB00037FE81915F01B60190E00E94FA06211094
:100BC0002A9421E0821A91088114910471F7E8C0F7
:100BD000843611F0893641F5F80137FE07C060818F
:100BE0007181828193810C5F1F4F08C06081718188
:100BF000072E000C880B990B0E5F1F4FF32DFF760D
:100C00003F2E97FF09C090958095709561957F4F15
:100C10008F4F9F4FF0683F2E2AE030E0A3010E94E3
:100C20003607882E861845C0853731F4232D2F7E50
:100C3000B22E2AE030E025C0932D997FB92E8F3651
:100C4000C1F018F4883579F0B5C0803719F08837CD
:100C500021F0B0C0E92FE061BE2EB4FE0DC0FB2D27
:100C6000F460BF2E09C034FE0AC0292F2660B22EC0
:100C700006C028E030E005C020E130E002C020E1FD
:100C800032E0F801B7FE07C06081718182819381F3
:100C90000C5F1F4F06C06081718180E090E00E5FA5
:100CA0001F4FA3010E943607882E8618FB2DFF7761
:100CB0003F2E36FE0DC0232D2E7FA22E891458F410
:100CC00034FE0BC032FC09C0832D8E7EA82E05C0D9
:100CD000B82CA32C03C0B82C01C0B92CA4FE0FC0A3
:100CE000FE01E80DF11D8081803321F49A2D997E5B
:100CF000A92E09C0A2FE06C0B394B39404C08A2DE5
:100D0000867809F0B394A3FC11C0A0FE06C0B2140B
:100D100088F4280C922C9B180EC0B21460F4B60113
:100D200080E290E00E94FA06B394F7CFB21418F470
:100D30002B1802C0982C212CA4FE10C0B60180E311
:100D400090E00E94FA06A2FE17C0A1FC03C088E74B
:100D500090E002C088E590E0B6010CC08A2D86784C
:100D600059F0A1FE02C08BE201C080E2A7FC8DE237
:100D7000B60190E00E94FA06891438F4B60180E3C7
:100D800090E00E94FA069A94F7CF8A94F301E80D56
:100D9000F11D8081B60190E00E94FA068110F5CF26
:100DA000222009F442CEB60180E290E00E94FA06C9
:100DB0002A94F6CFF6018681978102C08FEF9FEFCC
:100DC0002B96E2E10C94B007FC0105906150704055
:100DD0000110D8F7809590958E0F9F1F0895FC0104
:100DE0006150704001900110D8F7809590958E0F5A
:100DF0009F1F08950F931F93CF93DF93FB012381D0
:100E000021FD03C08FEF9FEF2CC022FF16C046814B
:100E10005781248135814217530744F4A081B18161
:100E20009D012F5F3F4F318320838C932681378133
:100E30002F5F3F4F3783268314C08B01EC01FB01EA
:100E40000084F185E02D0995892BE1F6D8011696ED
:100E50008D919C911797019617969C938E93169758
:100E6000CE01DF91CF911F910F910895FA01AA272A
:100E7000283051F1203181F1E8946F936E7F6E5FDD
:100E80007F4F8F4F9F4FAF4FB1E03ED0B4E03CD08B
:100E9000670F781F891F9A1FA11D680F791F8A1F6E
:100EA000911DA11D6A0F711D811D911DA11D20D0D5
:100EB00009F468943F912AE0269F11243019305D8F
:100EC0003193DEF6CF010895462F4770405D419380
:100ED000B3E00FD0C9F7F6CF462F4F70405D4A33CD
:100EE00018F0495D31FD4052419302D0A9F7EACF95
:100EF000B4E0A6959795879577956795BA95C9F7C4
:100F000000976105710508959B01AC010A2E0694B6
:100F10005795479537952795BA95C9F7620F731F6F
:100F2000841F951FA01D08952F923F924F925F92AC
:100F30006F927F928F929F92AF92BF92CF92DF92E9
:100F4000EF92FF920F931F93CF93DF93CDB7DEB74E
:100F5000CA1BDB0B0FB6F894DEBF0FBECDBF0994E2
:100F60002A88398848885F846E847D848C849B8439
:100F7000AA84B984C884DF80EE80FD800C811B8147
:100F8000AA81B981CE0FD11D0FB6F894DEBF0FBE76
:0A0F9000CDBFED010895F894FFCFE6
:100F9A00F7F7F7F7F75454545454000000010000CF
:100FAA0000000000560400000000000200000000DB
:100FBA0044040000000053746172747570207375E4
:100FCA00636365737366756C0A0A206E524632341F
:100FDA004C30312B20636F6E6669677572656420C9
:100FEA0061733A002D2D2D2D2D2D2D2D2D2D2D2DCD
:100FFA002D2D2D2D2D2D2D2D2D2D2D2D2D2D2D2D17
:10100A002D2D2D2D2D2D2D2D2D2D2D2D2D2D2D0033
:10101A00434F4E46494709093078253032580A006D
:10102A00454E5F41410909093078253032580A0096
:10103A00454E5F52584144445209093078253032AE
:10104A00580A0053455455505F52455452090930C5
:10105A0078253032580A0052465F43480909093058
:10106A0078253032580A0052465F53455455500984
:10107A00093078253032580A0053544154555309DF
:10108A00093078253032580A0046454154555245B0
:10109A0009093078253032580A002D2D2D2D2D2D95
:1010AA002D2D2D2D2D2D2D2D2D2D2D2D2D2D2D2D66
:1010BA002D2D2D2D2D2D2D2D2D2D2D2D2D2D2D2D56
:1010CA002D2D2D2D2D0A002533640D0A005265633E
:1010DA006569766564206D6573736167653A202575
:1010EA00730A004D6573736167652073656E7420BA
:1010FA007375636365737366756C6C79004D65739C
:10110A00736167652073656E743A2025730A0066F9
:06111A0061696C656400D0
:00000001FF
