:100000000C9434000C943E000C943E000C943E0082
:100010000C943E000C943E000C943E000C943E0068
:100020000C943E000C943E000C943E000C943E0058
:100030000C943E000C943E000C943E000C943E0048
:100040000C943E000C943E000C943E000C943E0038
:100050000C943E000C943E000C943E000C943E0028
:100060000C943E000C943E0011241FBECFEFD8E04C
:10007000DEBFCDBF0E9440000C9473000C940000C2
:10008000229A14BC85B5856085BD94E016BC20E03D
:1000900030E086B58F3F39F086B58F3F21F02B31A8
:1000A0003105D4F306C02F5F3F4F16BC2B3131050D
:1000B00081F785B1892785B916BC20E030E086B587
:1000C0008F3F39F086B58F3F21F022313105D4F3CF
:1000D00006C02F5F3F4F16BC2231310581F785B135
:0A00E000892785B9D3CFF894FFCF2C
:00000001FF
