:100000000C9434000C9446000C9446000C9446006A
:100010000C9469000C9446000C9446000C94460025
:100020000C9446000C9446000C9446000C94460038
:100030000C9446000C9446000C9446000C94460028
:100040000C9446000C9446000C9446000C94460018
:100050000C9446000C9446000C9446000C94460008
:100060000C9446000C94460011241FBECFEFD8E03C
:10007000DEBFCDBF21E0A0E0B1E001C01D92A23003
:10008000B207E1F70E9448000C94AB000C9400000A
:1000900080E48AB982E087B9419A84B5836884BDD7
:1000A00085B5856085BDE8E6F0E08081826080836B
:1000B000ECE6F0E0808182608083ECE7F0E0808114
:1000C00080648083EAE7F0E08081836E80837894A7
:1000D000FFCF1F920F920FB60F9211242F938F9381
:1000E0009F93EF93FF9331992CC0809100019091E1
:1000F0000101892B11F417BC2A988091000190917D
:100100000101019759F4EAE7F0E0808184FFFDCF17
:10011000809178009091790087BD2A9A2FEF89E627
:1001200098E1215080409040E1F700C000008091AC
:1001300000019091010121E08227909301018093B9
:100140000001FF91EF919F918F912F910F900FBE22
:0A0150000F901F901895F894FFCF50
:00000001FF
