S0130000536572766F204D6F746F722E73726563D1
S11300000C9434000C943E000C943E000C943E007E
S11300100C943E000C943E000C943E000C943E0064
S11300200C943E000C943E000C943E000C943E0054
S11300300C943E000C943E000C943E000C943E0044
S11300400C943E000C943E000C943E000C943E0034
S11300500C943E000C943E000C943E000C943E0024
S11300600C943E000C943E0011241FBECFEFD8E048
S1130070DEBFCDBF0E9440000C9469000C940000C8
S1130080E0E8F0E08081826A8083E1E8F0E080814A
S11300908B61808380E48AB9ECE7F0E0808180643E
S11300A08083EAE7F0E08081836E8083A8E7B0E094
S11300B0E8E8F0E08D919C911197918380832FEF74
S11300C08EE994E2215080409040E1F700C00000A6
S10900D0F1CFF894FFCF0C
S9030000FC
