S01500004750494F735F50617274315F432E73726563A4
S11300000C9434000C943E000C943E000C943E007E
S11300100C943E000C943E000C943E000C943E0064
S11300200C943E000C943E000C943E000C943E0054
S11300300C943E000C943E000C943E000C943E0044
S11300400C943E000C943E000C943E000C943E0034
S11300500C943E000C943E000C943E000C943E0024
S11300600C943E000C943E0011241FBECFEFD8E048
S1130070DEBFCDBF0E9440000C9456000C940000DB
S1130080229A2FE78DE395E1215080409040E1F7DB
S113009000C000002A982FEF88E29EE021508040A3
S11300A09040E1F700C000002A9AEBCFF894FFCF0C
S9030000FC
